:060000000A128A110C280F
:10000800FE00030EF0000A08F1000A128A111428F3
:100018000A128A110F28F20183010A128A114E2846
:10002800831203138C1E19281A2833281A08F20081
:1000380031307206031D2128222823280614323065
:100048007206031D282829282A280610333072062C
:10005800031D2F2830283228023086068C1271089A
:100068008A00700E8300FE0E7E0E090083160313AD
:10007800181519309900181283120313981783164C
:100088000313071787178C160B178B178312031385
:10009800181608000A128A113A200A128A118316C1
:1000A80003130610861083120313061086105B28AC
:0600B8000A128A110C2857
:02400E00713F00
:00000001FF
