:060000000A128A11FC2F18
:100E8200043071020030031970020318492F4A2FEF
:100E9200622F8312031397127018502F542F83124C
:100EA20003131716572F8312031317127008F20039
:100EB20001300310F20DFF3E031D5A2F0310720D75
:100EC200950008001F30831603138600081088104F
:100ED200831203130810881497151715831603132A
:100EE20007117C3092008312031312109214121510
:100EF20083120313061C7E2F7F2F902F013088064A
:100F0200023088060330F5008A30F4005530F300D1
:100F1200F30B892FF40B892FF50B892F902F831256
:100F22000313861C952F962FA72F0030F000F10097
:100F32000A128A1141270A128A118230F400DD3026
:100F4200F300F30BA22FF40BA22FA72F831203138C
:100F5200061DAC2FAD2FBF2FFA30F0000030F1008C
:100F62000A128A1141270A128A118230F400DD30F6
:100F7200F300F30BBA2FF40BBA2FBF2F8312031314
:100F8200861DC42FC52FD72F7730F0000130F10016
:100F92000A128A1141270A128A118230F400DD30C6
:100FA200F300F30BD22FF40BD22FD72F831203139C
:100FB200061EDC2FDD2FEF2FF430F0000130F100A0
:100FC2000A128A1141270A128A118230F400DD3096
:100FD200F300F30BEA2FF40BEA2FEF2F0D30F4009E
:100FE200FB30F300F30BF32FF40BF32FF82F792FD1
:0E0FF2000A128A11002883010A128A11632F45
:02400E00713F00
:00000001FF
