:060000000A128A11FC2F18
:10086C00831203138E018F010715023083120313B9
:10087C00BE00BE0B3F2C0000831203130711871D13
:10088C00482C492C452C101487194D2C4E2C4A2CD5
:10089C004230A3006B30A2003330A1003330A000F3
:1008AC000E08F0000F08F100F201F30100300A12FB
:1008BC008A1175250A128A11730883120313A70073
:1008CC007208A6007108A5007008A4000A128A110B
:1008DC002D260A128A11831203132308C200220840
:1008EC00C1002108C0002008BF004208BD0041081B
:1008FC00BC004008BB003F08BA000800031083127C
:10090C000313450D460DCC004C08031D8E2C8F2C6B
:10091C00982C0030C6000030C5000030C4000030F8
:10092C00C300FB2C4308C7004408C8004508C90095
:10093C004608CA001F300310CA0CC90CC80CC70CDF
:10094C00FF3E031DA12C4708CB00C517FF30C30584
:10095C00FF30C405FF30C5050030C6059630CC020B
:10096C00CC1FB92CBA2CD42C4C08803A973E0318C7
:10097C00C02CC12CC22C8F2C01300310C60CC50C02
:10098C00C40CC30CFF3E031DC32C0130FF007F08B9
:10099C00CC07031DD22CD32CC22CEB2C20304C02B8
:1009AC00031CD92CDA2CE62C8F2C0130C700031039
:1009BC00C30DC40DC50DC60DC70BDD2C0130CC020B
:1009CC004C08031DEA2CEB2CDB2C4B080319EF2CE9
:1009DC00F02CFB2CC309C409C509C609C30A0319A9
:1009EC00C40A0319C50A0319C60A0800831603139F
:1009FC0086018312031386018316031307118715CF
:100A0C00831203131012901290100A128A113624BA
:100A1C000A128A11831203133D08D2003C08D1003C
:100A2C003B08D0003A08CF005208A7005108A60096
:100A3C005008A5004F08A4004030A300A030A2002D
:100A4C000030A1000030A0000A128A112D260A12D3
:100A5C008A11831203132308C6002208C50021083B
:100A6C00C4002008C3000A128A1184240A128A11B5
:100A7C00831203134308D300512D01308600672DD8
:100A8C0003308600672D07308600672D0F308600F7
:100A9C00672D8601672D5308CD00CE014E08003A14
:100AAC000319592D4F2D4D08013A0319432D033AC3
:100ABC000319462D013A0319492D073A03194C2DF8
:100ACC004F2D823083120313CE00DD30CD00CD0BC1
:100ADC006D2DCE0B6D2D0B2D0A128A110028F800EE
:100AEC00780803197A2D7B2D8F2DF31F7E2D7F2DEA
:100AFC008F2D7009FA007109FB007209FC00730953
:100B0C00FD00FA0A0319FB0A0319FC0A0319FD0A72
:100B1C00972D7308FD007208FC007108FB0070082B
:100B2C00FA007308720471047004031D9E2D9F2D2E
:100B3C00A82D0030F3000030F2000030F10000303E
:100B4C00F0002C2E9630F900B82D0130FF007F08F4
:100B5C00F90701300310FD0CFC0CFB0CFA0CFF3EEA
:100B6C00031DB02DFE307D05031DBD2DBE2DAB2DFF
:100B7C00DA2D0130FF007F08F9070130FA07003049
:100B8C0003180130FB07003003180130FC0700305C
:100B9C0003180130FD0701300310FD0CFC0CFB0C9D
:100BAC00FA0CFF3E031DD22DFF307D05031DDF2DFA
:100BBC00E02DBF2DEC2D0130F9020130F4000310B3
:100BCC00FA0DFB0DFC0DFD0DF40BE52DFC1BEF2DB3
:100BDC00F02DF62D023079020318F52DF62DE12DAE
:100BEC007918F92DFA2D022EFF30FA05FF30FB058E
:100BFC007F30FC05FF30FD050310F90C7908F4007B
:100C0C00F501F601F70118300310F40DF50DF60D92
:100C1C00F70DFF3E031D0A2E7408FA047508FB0439
:100C2C007608FC047708FD04780803191E2E1F2E85
:100C3C00242EF31F222E232E242EFD177D08F300C5
:100C4C007C08F2007B08F1007A08F000080083129F
:100C5C00031327088039B1002708A8002807B8001B
:100C6C00A61F392E3A2E3B2E3814380803193F2E66
:100C7C00402E502E380A031D442E452E4D2E00308A
:100C8C00A7000030A6000030A5000030A400A61775
:100C9C00A701582E0030A7000030A6000030A50098
:100CAC000030A40023088039FF007F08B106230818
:100CBC00A8002807B900A21F642E652E662E3914D1
:100CCC00390803196A2E6B2E7B2E390A031D6F2EE1
:100CDC00702E782E0030A3000030A2000030A1004E
:100CEC000030A000A217A301832E0030A300003017
:100CFC00A2000030A1000030A0002308220421042F
:100D0C002004031D8A2E8B2EA42E0030A700003049
:100D1C00A6000030A5000030A4008030A6047F306F
:100D2C00A7043108FF007F08A7042708A3002608A2
:100D3C00A2002508A1002408A000FB2F3808031DE1
:100D4C00A82EA92EB22E0030A3000030A200003035
:100D5C00A1000030A000FB2F3808A800A901290829
:100D6C00AB0039082802AA00031CAB032A087F3EFB
:100D7C00B2002B080318013E003EB3002708B00058
:100D8C002608AF002508AE002408AD000030A700EF
:100D9C000030A6000030A5000030A4000030B700E1
:100DAC000030B6000030B5000030B400B901282F77
:100DBC0039080319E22EE32E032F0130A80003108B
:100DCC00AD0DAE0DAF0DB00DA80BE52E0130A8008A
:100DDC000310A40DA50DA60DA70DA80BEE2EB71F85
:100DEC00F82EF92EFA2E24140130A8000310B40D9D
:100DFC00B50DB60DB70DA80BFC2E23083002031D44
:100E0C00112F22082F02031D112F21082E02031D62
:100E1C00112F20082D02031C142F152F242F3717E8
:100E2C002008AD022108031C210FAE022208031C6E
:100E3C00220FAF022308031C230FB0020130FF0066
:100E4C007F08B9071A303902031C2D2F2E2FDE2EE6
:100E5C0030082F042E042D040319352F362F552F4F
:100E6C003414552F0130A8000310A40DA50DA60DA8
:100E7C00A70DA80B3A2FB71F442F452F462F24142C
:100E8C000130A8000310B40DB50DB60DB70DA80BAD
:100E9C00482FFF30B2070318B30AFF30B307A61F61
:100EAC00582F592F382FB901B71F5D2F5E2F7A2F6E
:100EBC00FF303405A800FF303505A900FF3036059A
:100ECC00AA007F303705AB002B082A04290428041C
:100EDC000319712F722F752FB901B90A7A2F241C9F
:100EEC00782F792F7A2F722F390803197E2F7F2FA5
:100EFC00B02F0130A407003003180130A5070030D3
:100F0C0003180130A607003003180130A707271C6F
:100F1C00902F912FB02F2408A8002508A90026088F
:100F2C00AA002708AB000130AC002B0DAB0CAA0CAF
:100F3C00A90CA80CAC0B9B2F2B08A7002A08A60009
:100F4C002908A5002808A4000130B2070318B30A29
:100F5C000030B3073308803AFF0080307F02031D56
:100F6C00B92FFF303202031CBC2FBD2FCB2FFF300B
:100F7C0083120313B2000030B3000030A70000301E
:100F8C00A6000030A5000030A40083120313330820
:100F9C00803AFF0080307F02031DD62F01303202D1
:100FAC000318D92FDA2FE72F83120313B201B301E1
:100FBC000030A7000030A6000030A5000030A400CF
:100FCC00B101831203133208B800381CEE2FEF2F37
:100FDC00F12FA617F52F7F30FF007F08A6053808E4
:100FEC00A8000310280CA700972E080083010A12F2
:040FFC008A11FC2C2E
:02400E00713F00
:00000001FF
