:060000000A128A110C280F
:10000800FE00030EF0000A08F1000A128A114528C2
:100018000A128A110F2883010A128A1113288316DB
:100028000313871007118312031387100711831610
:100038000313061401170B168B17831203130715E6
:100048000630F4001330F300AD30F200F20B2A282A
:10005800F30B2A28F40B2A283128831203130711DB
:100068000630F4001330F300AD30F200F20B3A28FA
:10007800F30B3A28F40B3A28412821280A128A114E
:100088000C288B1C482849284E2802308312031359
:1000980087068B1071088A00700E8300FE0E7E0E94
:0200A80009004D
:02400E00713F00
:00000001FF
