:060000000A128A11FC2F18
:100E7400F0007008831203178D00831603178C1378
:100E84000C14831203170C08F10071080800F10018
:100E9400831603178C184F2F502F4A2F7108831273
:100EA40003178D0070088C00831603178C130C1520
:100EB4008B1355308D00AA308D008C148B170C11B8
:100EC4008C1008000F3083160313860088018312E8
:100ED40003138801F60183120313861C722F732FE8
:100EE4008C2F0330F00076080A128A1149270A125F
:100EF4008A110130FF007F08F6070330F4008A30BE
:100F0400F3005530F200F20B852FF30B852FF40B11
:100F1400852F8C2F83120313061D912F922FAB2F35
:100F24000530F00076080A128A1149270A128A113C
:100F34000130FF007F08F6070330F4008A30F30025
:100F44005530F200F20BA42FF30BA42FF40BA42FB3
:100F5400AB2F83120313861DB02FB12FCA2F073076
:100F6400F00076080A128A1149270A128A11013000
:100F7400FF007F08F6070330F4008A30F300553091
:100F8400F200F20BC32FF30BC32FF40BC32FCA2FA2
:100F940003307606031DCF2FD02FD12FF6018312F5
:100FA4000313061CD62FD72F6D2FF50175080A12CF
:100FB4008A113A270A128A11831203138800063011
:100FC400F4001330F300AD30F200F20BE72FF30B13
:100FD400E72FF40BE72FEE2F0130FF007F08F50712
:100FE40003307502031CF72FF82FD82F6D2F0A1228
:0C0FF4008A11002883010A128A11642F60
:02400E00713F00
:00000001FF
