:060000000A128A11EE2F26
:100F2400FC346034DA34F2346634B634BE34E0343B
:100F3400FE34F6347E088A007F0882000A128A1181
:100F44009C270A128A118000840A04087D0603196A
:100F54000034FF0A0319FE0AA02F203084002B302E
:100F6400F0000408F1000A30F200700884008313D2
:100F74000008F300F00A7108840073088000F10A85
:100F8400F20BB72F83160313860183120313860112
:100F9400AA012A08203E8400831300088600063034
:100FA400F2001330F100AD30F000F00BD72FF10B4D
:100FB400D72FF20BD72FDE2F0130FF007F088312CB
:100FC4000313AA070A302A02031CE92FEA2FCB2FA6
:100FD400CA2F0A128A11002883133530FD00073006
:100FE400FE009230FF002B3084000A128A11A027E1
:0C0FF4000A128A1183010A128A11AF2F21
:02400E00713F00
:00000001FF
