:060000000A128A11FC2F18
:100F3C004130831203139F008030831603139F00EC
:100F4C000800F300C530FF007F08831203139F05D0
:100F5C007308F20002300310F20DFF3E031DB12F97
:100F6C000310720DFF007F089F040930F200F20B92
:100F7C00BD2FC02F831203131F151F19C62FC72F88
:100F8C00C32F1E08F100831603131E08F00008007F
:100F9C000A128A119E270A128A11831603138601DC
:100FAC0083120313860100300A128A11A7270A1232
:100FBC008A117008F4007108F5000310F50CF40C9C
:100FCC000310F50CF40C7408F6007508F70076089D
:100FDC00831203138600C730F400F42FF40BF32FA5
:100FEC00F72FF82FD92F0A128A11002883010A1221
:040FFC008A11CE2F59
:02400E00713F00
:00000001FF
