:060000000A128A11FC2F18
:100EDE004130831203139F008030831603139F004B
:100EEE0008008312031397151715831603130711A2
:100EFE00FA30920083120313121492101215080086
:100F0E000430750200300319740203188F2F902FCE
:100F1E00A72F7418932F972F8312031317169A2F38
:100F2E0083120313171297127508F7007408F60050
:100F3E000310F70CF60C0310F70CF60C7608950060
:100F4E0008000A128A1178270A128A110A128A11C7
:100F5E006F270A128A1100300A128A11CC270A1240
:100F6E008A117108F5007008F4000A128A11872799
:100F7E000A128A11C730F800C42FF80BC32FC72FDF
:100F8E00C82FB22F0A128A110028F30008307302FC
:100F9E00031CD22FD32FD62FF001F101FB2FC5301A
:100FAE00FF007F08831203139F057308F2000230BF
:100FBE000310F20DFF3E031DDF2F0310720DFF0015
:100FCE007F089F040930F200F20BEB2FEE2F8312F5
:100FDE0003131F151F19F42FF52FF12F1E08F10003
:100FEE00831603131E08F000080083010A128A11EB
:020FFE00A82F1A
:02400E00713F00
:00000001FF
