:060000000A128A110E280D
:10000800FE00030EF0000A08F1007F08F2000A1251
:100018008A1116280A128A111128F30183010A127B
:100028008A113328831203130C1C1B281C282A2826
:100038000130FF007F08F30714307306031D2528DD
:100048002628292801308606F3010C107208FF00C3
:1000580071088A00700E8300FE0E7E0E090083165A
:1000680003130610831203130610831603130C14CC
:100078000B178B173C30831203138F00B0308E00A0
:10008800901010129012101448280A128A110E2883
:02400E00713F00
:00000001FF
