:060000000A128A11FC2F18
:100F02000A128A1193270A128A11831603131114E3
:100F120008000A128A1193270A128A1183160313F0
:100F220011150800831603131419982F992F932F64
:100F320011081F39031D9E2F9F2F932F0800831620
:100F420003138715071628308312031394008316A0
:100F520003139101093093000800F0000A128A116C
:100F620093270A128A1170088312031393000A123C
:100F72008A1193270A128A110800FF30831603137D
:100F820086008801831203138801F401F40A0A120D
:100F92008A11A0270A128A110A128A1181270A12BB
:100FA2008A1140300A128A11AE270A128A11740875
:100FB2000A128A11AE270A128A110130FF007F0835
:100FC200F4070A128A118A270A128A110330F300DF
:100FD2008A30F2005530F100F10BED2FF20BED2FBC
:100FE200F30BED2FF42F0830831203138806CD2F55
:0E0FF2000A128A11002883010A128A11BE2FEA
:02400E00713F00
:00000001FF
