:060000000A128A11F32F21
:10001000F800F401F5017008F200F3017208F6002F
:100020007308F700781C152816281C287608F40792
:100030000318F50A7708F50701300310F60DF70DE0
:10004000FF3E031D1D280310F80C7808031D292806
:100050002A2812287508F1007408F0000800F8003A
:1000600078080319342835284928F31F38283928F7
:1000700049287009FA007109FB007209FC00730934
:10008000FD00FA0A0319FB0A0319FC0A0319FD0A09
:1000900051287308FD007208FC007108FB0070080D
:1000A000FA007308720471047004031D582859285B
:1000B00062280030F3000030F2000030F100003020
:1000C000F000E6289630F90072280130FF007F0822
:1000D000F90701300310FD0CFC0CFB0CFA0CFF3E81
:1000E000031D6A28FE307D05031D772878286528C2
:1000F00094280130FF007F08F9070130FA0700302B
:1001000003180130FB07003003180130FC070030F2
:1001100003180130FD0701300310FD0CFC0CFB0C33
:10012000FA0CFF3E031D8C28FF307D05031D992826
:100130009A287928A6280130F9020130F40003102A
:10014000FA0DFB0DFC0DFD0DF40B9F28FC1BA928DF
:10015000AA28B028023079020318AF28B0289B28BB
:100160007918B328B428BC28FF30FA05FF30FB0506
:100170007F30FC05FF30FD050310F90C7908F40011
:10018000F501F601F70118300310F40DF50DF60D29
:10019000F70DFF3E031DC4287408FA047508FB041C
:1001A0007608FC047708FD0478080319D828D928B4
:1001B000DE28F31FDC28DD28DE28FD177D08F3008C
:1001C0007C08F2007B08F1007A08F00008000310B8
:1001D000720D730D83120313A5002508031DF1286A
:1001E000F228FB280030F3000030F2000030F1006C
:1001F0000030F0009E290310760D770DA40024082E
:10020000031D032904290529F228F217FF30F00500
:10021000FF30F105FF30F2050030F305F617FF302F
:10022000F405FF30F505FF30F6050030F705003026
:10023000A3000030A2000030A1000030A0007F30F9
:10024000A502A0302407F8007808A5022030A400F9
:100250000130F8000310A00DA10DA20DA30DF80BA5
:100260002A2977087302031D3F2976087202031DAD
:100270003F2975087102031D3F2974087002031C91
:100280004229432952297408F0027508031C750F8E
:10029000F1027608031C760FF2027708031C770F31
:1002A000F30220140130F8000310F00DF10DF20DEF
:1002B000F30DF80B54290130A402031D60296129B4
:1002C0002829A51F642965297F292508803A9F3E92
:1002D00003186B296C296D29F22801300310A30C37
:1002E000A20CA10CA00CFF3E031D6E290130FF00E3
:1002F0007F08A507031D7D297E296D2996292030B9
:100300002502031C842985299129F2280130F8004F
:100310000310A00DA10DA20DA30DF80B882901302B
:10032000A5022508031D9529962986292308F3008F
:100330002208F2002108F1002008F00008008316CE
:100340000313B6006B30A900DA2F25303D060319E0
:10035000AA29AB29B529360884003D0883178000F7
:100360000130FF007F08B607DA2FAA01AB01831224
:1003700003136A0884000A168A1100200A128A11DF
:100380002E3A031DC429C529172A831603132B17D8
:100390000130FF007F0883120313EA07831603135B
:1003A000B701B801052A0A30F0000030F1008316C9
:1003B00003133808F3003708F2000A168A1554258B
:1003C0000A128A11710883160313B8007008B70067
:1003D000831203136A0884000A168A1100200A1285
:1003E0008A11D03E83160313A000FF30031800309B
:1003F000A1002008B7070318B80A2108B807013080
:10040000FF007F0883120313EA0783126A0884003F
:100410000A168A1100200A128A110A168A15FD246A
:100420000A128A110318152A162AD3291F2A83169D
:100430000313B701B8012B161F2A2B153D2A0130D3
:1004400083120313EA07FF306A0784000A168A1131
:1004500000200A128A1183160313BD00A000A10117
:100460002108003A0319352ADA2F2008003A031927
:10047000EE2F663A03191D2ADA2F00302A05A00054
:1004800007302B05A100200821040319482A492A16
:10049000972F2B1E4C2A4D2A512A0630B7000030C8
:1004A000B8002908840083130008B900840A0008F2
:1004B000BA00840A0008BB00840A0008BC000430AB
:1004C000FF007F08A9073C08F3003B08F2003A0848
:1004D000F1003908F0000030F7000030F60000307D
:1004E000F5000030F4000A128A1503200A128A115E
:1004F00003187B2A7C2A992A831603133C08F300ED
:100500003B08F2003A08F1003908F0000A168A1593
:10051000D7240A128A11730883160313BC007208C9
:10052000BB007108BA007008B9000330AA0400309B
:10053000AB0483160313B001B1013C08F3003B0880
:10054000F2003A08F1003908F0000030F7000030FE
:10055000F6000030F5000030F4000A168A15272650
:100560000A128A110318B52AB62AA62B031083167D
:1005700003133B0D3C0D823EB000FF3003180030EA
:10058000B100FF30B0070318B10AFF30B1070330E4
:10059000F0000030F1003108F3003008F2000A16D4
:1005A0008A1554250A128A11710883160313B100A3
:1005B0007008B0000A30F6000030F7003108F9008A
:1005C0003008F8000A168A11B7200A128A11770833
:1005D00083160313B1007608B000B11FF02AF12A88
:1005E000F72AFF30B0070318B10AFF30B107300314
:1005F000FF3A0A128A15A1240A128A1183120313E0
:100600003D0883160313B500831203133C088316B9
:100610000313B400831203133B0883160313B300C0
:10062000831203133A0883160313B2003C088312A3
:100630000313A300831603133B0883120313A200C2
:10064000831603133A0883120313A10083160313BE
:10065000390883120313A00083160313350883128D
:100660000313A70083160313340883120313A60091
:1006700083160313330883120313A5008316031391
:10068000320883120313A4000A128A155C210A128D
:100690008A1183120313230883160313B5008312F0
:1006A0000313220883160313B400831203132108D3
:1006B00083160313B3008312031320088316031356
:1006C000B2003508F3003408F2003308F1003208B4
:1006D000F0003F30F7008030F6000030F5000030C9
:1006E000F4000A128A1503200A128A110318792BC2
:1006F0007A2B832BFF3083160313B0070318B10A3C
:10070000FF30B107A62B831603133508F300340816
:10071000F2003308F1003208F0004130F7002030D9
:10072000F6000030F5000030F4000A128A150320AC
:100730000A128A11031C9D2B9E2BA62B01308316B7
:100740000313B0070318B10A0030B107831603136F
:100750003808803AFF0080307F02031DB12B0D3036
:1007600037020318B42BB52BFC2B83160313370861
:100770000A168A119D230A128A11831203133D0857
:10078000D1003C08D0003B08CF003A08CE008316C9
:1007900003133C0883120313D500831603133B088D
:1007A00083120313D400831603133A08831203132E
:1007B000D30083160313390883120313D2000A16D9
:1007C0008A11A8250A128A1183120313510883166D
:1007D0000313BC0083120313500883160313BB00DA
:1007E000831203134F0883160313BA0083120313F3
:1007F0004E0883160313B900831603133108803A99
:10080000FF0080307F02031D072C0A3030020318DE
:100810000A2C0B2C5C2C831603133C08F3003B08BA
:10082000F2003A08F1003908F0000030F70000301B
:10083000F6000030F5000030F4000A168A1527266D
:100840000A128A110318252C262CCE2C831603138A
:100850003C0883120313D000831603133B08831252
:100860000313CF00831603133A0883120313CE0039
:1008700083160313390883120313CD000A168A1551
:1008800088270A128A118312031350084F044E045A
:100890004D04031D4C2C4D2CCE2C83160313310814
:1008A000803AFF0080307F02031D582C0230300256
:1008B000031C5B2C5C2CCE2C831603133508F30031
:1008C0003408F2003308F1003208F0004030F7003D
:1008D0008930F6007030F5005F30F4000A128A1596
:1008E00003200A128A110318762C772C802CF730FB
:1008F00083160313B0070318B10AFF30B107882C21
:10090000F83083160313B0070318B10AFF30B1079C
:1009100030080A128A15A1240A128A1183120313BD
:100920003D0883160313B500831203133C08831696
:100930000313B400831203133B0883160313B3009D
:10094000831203133A0883160313B2003C08F30022
:100950003B08F2003A08F1003908F0003508F700CA
:100960003408F6003308F5003208F4000A128A1140
:10097000E7200A128A11730883160313AF00720866
:10098000AE007108AD007008AC000030BC00003053
:10099000BB000030BA000030B900522D831603139B
:1009A0003C0883120313D000831603133B08831201
:1009B0000313CF00831603133A0883120313CE00E8
:1009C00083160313390883120313CD000A168A1500
:1009D00088270A128A1183120313500883160313FF
:1009E000AF00831203134F0883160313AE00831264
:1009F00003134E0883160313AD00831203134D082F
:100A000083160313AC002F08F3002E08F2002D0804
:100A1000F1002C08F00000300A128A112F200A126F
:100A20008A11730883120313E5007208E400710849
:100A3000E3007008E200831603133C0883120313DB
:100A4000E900831603133B0883120313E80083169F
:100A500003133A0883120313E700831603133908BC
:100A600083120313E6000A168A1530250A128A112A
:100A700083120313650883160313BC008312031348
:100A8000640883160313BB008312031363088316E1
:100A90000313BA0083120313620883160313B90009
:100AA000B001B101BD01BD0A3D08A0000130031035
:100AB000A00DFF3E031D572D0310200D693E84003D
:100AC0000A168A1100200A128A11A1000A168A1138
:100AD00000200A128A11A2000A168A1100200A12A6
:100AE0008A11A3000A168A1100200A128A11A40092
:100AF00024082F02031D862D23082E02031D862D98
:100B000022082D02031D862D21082C020318892D91
:100B10008A2D8B2D952D0130FF007F08BD070A30EF
:100B20003D06031D942D952D542D03302A05A0005C
:100B300000302B05A100200821040319A02DA12DB0
:100B40000C2E360884002D30831780000130FF0002
:100B50007F08B6070C2E3D08A00001300310A00D41
:100B6000FF3E031DAE2D0310200D693E84000A16C2
:100B70008A1100200A128A11F0000A168A11002038
:100B80000A128A11F1000A168A1100200A128A112B
:100B9000F2000A168A1100200A128A11F3002F08A7
:100BA000F7002E08F6002D08F5002C08F4000A16B0
:100BB0008A1522270A128A11730883160313B500B7
:100BC0007208B4007108B3007008B2000030F3007E
:100BD0000030F2000030F1000A30F0003508F70074
:100BE0003408F6003308F5003208F4000A168A15B6
:100BF00075260A128A11730883160313B50072084A
:100C0000B4007108B3007008B200360884003208DE
:100C1000303E83178000A62D0130BD023D0A031D22
:100C2000122E132EAB2D252E8316031336088400A7
:100C30003030831780000130FF007F08B607FF3097
:100C4000B0070318B10AFF30B1073108803AFF003E
:100C500080307F02031D2E2E013030020318312E0A
:100C6000322E142E831603133808803AFF0080308A
:100C70007F02031D3D2E09303702031C402E412EFA
:100C8000462E083083160313BD004A2E8316031325
:100C90003708BD003D08A000A1012008B7022108C7
:100CA000031CB803B8023D080319572E582E612EB5
:100CB000360884002E30831780000130FF007F0843
:100CC000B6073D080A128A15A1240A128A11831256
:100CD00003133D0883160313A800831203133C0873
:100CE00083160313A700831203133B088316031311
:100CF000A600831203133A0883160313A5002808DD
:100D000083120313A7008316031327088312031308
:100D1000A60083160313260883120313A500831667
:100D20000313250883120313A400831603133C083E
:100D300083120313A300831603133B0883120313C8
:100D4000A200831603133A0883120313A10083162B
:100D50000313390883120313A0000A128A155C21B9
:100D60000A128A11831203132308D0002208CF002D
:100D70002108CE002008CD000A168A1588270A12FD
:100D80008A1183120313500883160313AF008312D2
:100D900003134F0883160313AE00831203134E0888
:100DA00083160313AD00831203134D088316031338
:100DB000AC00792F3D08A00001300310A00DFF3ECC
:100DC000031DDD2E0310200D693E84000A168A11D2
:100DD00000200A128A11F0000A168A1100200A1255
:100DE0008A11F1000A168A1100200A128A11F200F3
:100DF0000A168A1100200A128A11F3002F08F70040
:100E00002E08F6002D08F5002C08F4000A168A15A5
:100E100022270A128A11730883160313B500720879
:100E2000B4007108B3007008B2000030F300003065
:100E3000F2000030F1000A30F0003508F700340805
:100E4000F6003308F5003208F4000A168A157526F4
:100E50000A128A11730883160313B5007208B400CE
:100E60007108B3007008B200360884003208303EC2
:100E7000831780000130FF007F08B6073D08A000FF
:100E800001300310A00DFF3E031D412F0310200D64
:100E9000693E84000A168A1100200A128A11F000A5
:100EA0000A168A1100200A128A11F1000A168A1104
:100EB00000200A128A11F2000A168A1100200A1272
:100EC0008A11F3002F08F7002E08F6002D08F50010
:100ED0002C08F4000A168A1575260A128A1173085E
:100EE00083160313AF007208AE007108AD007008DE
:100EF000AC000130BD023D0A031D7F2F802FDA2E8A
:100F0000902F360884003030831780000130FF00B6
:100F10007F08B607FF30B7070318B80AFF30B807D5
:100F200037083804031D952F962F812FDA2F3708A5
:100F30003804031D9C2F9D2FAB2F2F082E042D044A
:100F40002C04031DA42FA52FAB2F0130B7070318C6
:100F5000B80A0030B8073808803A803C031DB22F29
:100F600037083D020318B52FB62FB72FC62F8316AB
:100F700003133808803AA00080302002031DC22FDE
:100F80003D0837020318C52FC62FC62F033083161E
:100F900003132A05A00000302B05A100200821041E
:100FA0000319D32FD42FDA2F360884002D3083175E
:100FB0008000B029013083120313EA07FF306A076B
:100FC00084000A168A1100200A128A11831603135C
:100FD000BD003D08031DED2FEE2FA5293608840026
:100FE000831780010800831790308400C2300A16EE
:100FF0008A15C6240A128A1183010A168A111E292B
:1010060000307005F80000307105F9008030720577
:10101600FA007F307305FB007B087A0479047804B4
:10102600031D162817281F280030F3000030F20091
:101036000030F1000030F00000307405F800003098
:101046007505F90080307605FA007F307705FB00DC
:101056007B087A0479047804031D322833283B2858
:101066000030F7000030F6000030F5000030F400E4
:10107600F31F3E283F2863280030F8000030F900AF
:101086000030FA008030FB007008F8027108031C7B
:10109600710F4E284F28F9027208031C720F54284C
:1010A6005528FA027308031C730F5A285B28FB02A3
:1010B6007B08F3007A08F2007908F1007808F0005E
:1010C600F71F662867288B280030F8000030F900E3
:1010D6000030FA008030FB007408F8027508031C23
:1010E600750F76287728F9027608031C760F7C2878
:1010F6007D28FA027708031C770F82288328FB02D3
:101106007B08F7007A08F6007908F5007808F400FD
:101116008030F3068030F70677087302031D9D289A
:1011260076087202031D9D2875087102031D9D280D
:10113600740870020318A028A128A3280310A42865
:10114600031408007008F8007108F9007208FA0024
:101156000310790D7A0D83120313A5002508031DCC
:10116600B528B628BF280030F3000030F200003062
:10117600F1000030F0005B297408F8007508F900EA
:101186007608FA000310790D7A0DA4002408031DD1
:10119600CD28CE28CF28B628F117FF30F005FF302E
:1011A600F1050030F205F517FF30F405FF30F505BF
:1011B6000030F6050030A3000030A2000030A10088
:1011C6000030A0007F30A50298302407F800780888
:1011D600A5021830A4000130F8000310A00DA10DDF
:1011E600A20DA30DF80BF02876087202031D012943
:1011F60075087102031D012974087002031C042975
:10120600052910297408F0027508031C750FF102F0
:101216007608031C760AF202201401300310F00D42
:10122600F10DF20DFF3E031D11290130A402031D2D
:101236001D291E29EE28A51F212922293C2925081A
:10124600803A973E0318282929292A29B6280130E9
:101256000310A30CA20CA10CA00CFF3E031D2B290E
:101266000130FF007F08A507031D3A293B292A29DB
:10127600532918302502031C412942294E29B62834
:101286000130F8000310A00DA10DA20DA30DF80B5F
:1012960045290130A5022508031D52295329432952
:1012A6002308F3002208F2002108F1002008F000CC
:1012B60008008312031323088039AD002308A80011
:1012C6002807B300A21F682969296A29331433083D
:1012D60003196E296F297E29330A031D7329742980
:1012E6007C290030A3000030A2000030A1000030AD
:1012F600A000A21786290030A3000030A20000300B
:10130600A1000030A00027088039FF007F08AD0645
:101316002708A8002807B200A61F92299329942916
:1013260032143208031998299929A829320A031D6B
:101336009D299E29A6290030A7000030A60000306E
:10134600A5000030A400A617B0290030A700003081
:10135600A6000030A5000030A40032080319B42905
:10136600B529BA293308031DB929BA29C32900307A
:10137600A3000030A2000030A1000030A000A02C85
:101386002008F00026080A128A1108200A128A1577
:10139600710883120313B9007008B8003808A80052
:1013A600A901AA01AB012B08B1002A08B00029083F
:1013B600AF002808AE003908A800A901AA01AB01B0
:1013C6002B08B7002A08B6002908B5002808B4007B
:1013D6002108F00025080A128A1108200A128A1527
:1013E600710883120313B9007008B8003808A80002
:1013F600A901AA01AB012808AE07290803110318A1
:10140600013E0319072AAF072A0803110318013EF4
:1014160003190E2AB0072B0803110318013E0319FE
:10142600152AB1073908A800A901AA01AB012808A5
:10143600B407290803110318013E0319232AB50727
:101446002A0803110318013E03192A2AB6072B0896
:1014560003110318013E0319312AB7072208F000C9
:1014660024080A128A1108200A128A1571088312A2
:101476000313B9007008B8003808A800A901AA012A
:10148600AB012808AE07290803110318013E03190A
:101496004D2AAF072A0803110318013E0319542ADF
:1014A600B0072B0803110318013E03195B2AB10785
:1014B6003908A800A901AA01AB012808B407290820
:1014C60003110318013E0319692AB5072A080311F7
:1014D6000318013E0319702AB6072B0803110318D7
:1014E600013E0319772AB7070830A8000310AE0D8E
:1014F600AF0DB00DB10DA80B792A2108F000240814
:101506000A128A1108200A128A1571088312031317
:10151600B9007008B8003808A8003908A900AA015F
:10152600AB012808AE07290803110318013E031969
:101536009D2AAF072A0803110318013E0319A42A9E
:10154600B0072B0803110318013E0319AB2AB10794
:101556002008F00025080A128A1108200A128A15A6
:10156600710883120313B9007008B8003808A80080
:101576003908A900AA01AB012808AE0729080311FA
:101586000318013E0319C82AAF072A0803110318D6
:10159600013E0319CF2AB0072B0803110318013E99
:1015A6000319D62AB1070830A8000310AE0DAF0DF7
:1015B600B00DB10DA80BD82A2008F00024080A1295
:1015C6008A1108200A128A15710883120313B900BA
:1015D6007008B8003808A8003908A900AA01AB01AC
:1015E6002808AE07290803110318013E0319FC2A2F
:1015F600AF072A0803110318013E0319032BB0078E
:101606002B0803110318013E03190A2BB107210801
:10161600F00026080A128A1108200A128A15710893
:1016260083120313B9007008B8003808A8003908F7
:10163600A900AA01AB012808B40729080311031859
:10164600013E0319272BB5072A0803110318013E8B
:1016560003192E2BB6072B0803110318013E031995
:10166600352BB7072208F00025080A128A11082030
:101676000A128A15710883120313B9007008B8009C
:101686003808A8003908A900AA01AB012808B40740
:10169600290803110318013E0319522BB5072A081E
:1016A60003110318013E0319592BB6072B08031122
:1016B6000318013E0319602BB7072208F00026081D
:1016C6000A128A1108200A128A1571088312031356
:1016D600B9007008B8003808A8003908A900AA019E
:1016E600AB0108300310A80DA90DAA0DAB0DFF3EE6
:1016F600031D752B2808B407290803110318013E9A
:101706000319862BB5072A0803110318013E03198E
:101716008D2BB6072B0803110318013E0319942BD2
:10172600B7072E08A8002F08A9003008AA0031081C
:10173600AB0018300310AB0CAA0CA90CA80CFF3E8A
:10174600031D9D2B2808B407290803110318013E21
:101756000319AE2BB5072A0803110318013E031916
:10176600B52BB6072B0803110318013E0319BC2B32
:10177600B7070830A8000310AE0DAF0DB00DB10DC0
:10178600A80BBE2B33083207A800A901A90D28080B
:10179600823EB80029080318013EFF3EB900F02B2F
:1017A6000130A8000310B40DB50DB60DB70DA80B8A
:1017B600D52BB11FDF2BE02BE12B34140130A80011
:1017C6000310AE0DAF0DB00DB10DA80BE32BFF301E
:1017D600B8070318B90AFF30B907B61FF32BF42B65
:1017E600D32BB201B11FF82BF92B152CFF302E0588
:1017F600A800FF302F05A900FF303005AA007F3072
:101806003105AB002B082A042904280403190C2CE3
:101816000D2C102CB201B20A152C341C132C142CCE
:10182600152C0D2C32080319192C1A2C4B2C0130AF
:10183600B407003003180130B50700300318013033
:10184600B607003003180130B707371C2B2C2C2C99
:101856004B2C3408A8003508A9003608AA0037081A
:10186600AB000130AC002B0DAB0CAA0CA90CA80CDC
:10187600AC0B362C2B08B7002A08B6002908B50091
:101886002808B4000130B8070318B90A0030B907B0
:101896003908803AFF0080307F02031D542CFF3048
:1018A6003802031C572C582C632C7F3083120313E9
:1018B600B7008030B6000030B5000030B400942C7C
:1018C600831203133908803AFF0080307F02031D1C
:1018D6006E2C013038020318712C722C7E2C0030CD
:1018E60083120313B7000030B6000030B500003095
:1018F600B400AD01942C831203133808B300FF30F3
:10190600B405FF30B5057F30B6050030B705331C8A
:101916008D2C8E2C8F2CB6173308A8000310280C9C
:10192600B7002D08FF007F08B7043708A300360864
:10193600A2003508A1003408A00008008312031392
:10194600CC00CC1FA72CA82C552ECC09CC0A4C08B1
:10195600803A123E031CB02CB12C992D0A30F600A9
:101966000030F7004C08F200F301F21BF303643079
:10197600F0000030F1000A168A15C9260A128A15E7
:101986007108F9007008F8000A168A11B7200A12C1
:101996008A15760883120313BE0001300310BE0DAC
:1019A600FF3E031DD12C03103E0D593E84000A163E
:1019B6008A1100200A128A15BF000A168A11002011
:1019C6000A128A15C0000A168A1100200A128A1500
:1019D600C1000A168A1100200A128A15C20042089E
:1019E600A3004108A2004008A1003F08A0006430FF
:1019F600F6000030F7004C08F800F901F81BF9036F
:101A06000A168A11B7200A128A157608831203135A
:101A1600C30001300310C30DFF3E031D0D2D03103F
:101A2600430D7D3E84000A168A1100200A128A158B
:101A3600C4000A168A1100200A128A15C5000A1661
:101A46008A1100200A128A15C6000A168A11002079
:101A56000A128A15C7004708A7004608A6004508C7
:101A6600A5004408A4000A128A155C210A128A15E8
:101A7600831203132308CB002208CA002108C900D9
:101A86002008C8000A30F0000030F1004C08F200CF
:101A9600F301F21BF3030A168A15C9260A128A15E0
:101AA600700883120313BE0001300310BE0DFF3E03
:101AB600031D582D03103E0D353E84000A168A116B
:101AC60000200A128A15BF000A168A1100200A127F
:101AD6008A15C0000A168A1100200A128A15C1004A
:101AE6000A168A1100200A128A15C2004208A300AB
:101AF6004108A2004008A1003F08A0004B08A7002B
:101B06004A08A6004908A5004808A4000A128A1532
:101B16005C210A128A15831203132308BD002208CA
:101B2600BC002108BB002008BA00FF2F4C08803AF1
:101B3600753E031C9F2DA02D282E0A30F000003084
:101B4600F1004C08F200F301F21BF3030A168A15A2
:101B5600C9260A128A15700883120313BE000130C3
:101B66000310BE0DFF3E031DB32D03103E0D353E83
:101B760084000A168A1100200A128A15BF000A1666
:101B86008A1100200A128A15C0000A168A1100203E
:101B96000A128A15C1000A168A1100200A128A152D
:101BA600C2004208A3004108A2004008A1003F0865
:101BB600A0000A30F6000030F7004C08F800F901E2
:101BC600F81BF9030A168A11B7200A128A15760835
:101BD60083120313C30001300310C30DFF3E031D20
:101BE600EF2D0310430D593E84000A168A1100207A
:101BF6000A128A15C4000A168A1100200A128A15CA
:101C0600C5000A168A1100200A128A15C6000A168D
:101C16008A1100200A128A15C7004708A70046083D
:101C2600A6004508A5004408A4000A128A155C21EE
:101C36000A128A15831203132308BD002208BC006A
:101C46002108BB002008BA00FF2F4C08BE00013057
:101C56000310BE0DFF3E031D2B2E03103E0D353E19
:101C660084000A168A1100200A128A15BF000A1675
:101C76008A1100200A128A15C0000A168A1100204D
:101C86000A128A15C1000A168A1100200A128A153C
:101C9600C2004208BD004108BC004008BB003F0826
:101CA600BA00FF2F4C08803A123E031C5B2E5C2EB6
:101CB600442F0A30F6000030F7004C08F200F3011A
:101CC600F21BF3036430F0000030F1000A168A15A7
:101CD600C9260A128A157108F9007008F8000A1652
:101CE6008A11B7200A128A15760883120313BE00DA
:101CF60001300310BE0DFF3E031D7C2E03103E0D6A
:101D0600253E84000A168A1100200A128A15BF0091
:101D16000A168A1100200A128A15C0000A168A11AC
:101D260000200A128A15C1000A168A1100200A121A
:101D36008A15C2004208A3004108A2004008A1007B
:101D46003F08A0006430F6000030F7004C08F800A9
:101D5600F901F81BF9030A168A11B7200A128A1527
:101D6600760883120313C30001300310C30DFF3E30
:101D7600031DB82E0310430D493E84000A168A112E
:101D860000200A128A15C4000A168A1100200A12B7
:101D96008A15C5000A168A1100200A128A15C6007D
:101DA6000A168A1100200A128A15C7004708A700DA
:101DB6004608A6004508A5004408A4000A128A158C
:101DC6005C210A128A15831203132308CB0022080A
:101DD600CA002108C9002008C8000A30F0000030F7
:101DE600F1004C08F200F301F21BF3030A168A1500
:101DF600C9260A128A15700883120313BE00013021
:101E06000310BE0DFF3E031D032F03103E0D013EC2
:101E160084000A168A1100200A128A15BF000A16C3
:101E26008A1100200A128A15C0000A168A1100209B
:101E36000A128A15C1000A168A1100200A128A158A
:101E4600C2004208A3004108A2004008A1003F08C2
:101E5600A0004B08A7004A08A6004908A5004808A4
:101E6600A4000A128A155C210A128A15831203132A
:101E76002308BD002208BC002108BB002008BA00C8
:101E8600FF2F4C08803A753E031C4A2F4B2FD32F49
:101E96000A30F0000030F1004C08F200F301F21BAA
:101EA600F3030A168A15C9260A128A1570088312C0
:101EB6000313BE0001300310BE0DFF3E031D5E2F4F
:101EC60003103E0D013E84000A168A1100200A12F4
:101ED6008A15BF000A168A1100200A128A15C00048
:101EE6000A168A1100200A128A15C1000A168A11DA
:101EF60000200A128A15C2004208A3004108A20067
:101F06004008A1003F08A0000A30F6000030F700A4
:101F16004C08F800F901F81BF9030A168A11B720D4
:101F26000A128A15760883120313C30001300310C0
:101F3600C30DFF3E031D9A2F0310430D253E84005B
:101F46000A168A1100200A128A15C4000A168A1176
:101F560000200A128A15C5000A168A1100200A12E4
:101F66008A15C6000A168A1100200A128A15C700A9
:101F76004708A7004608A6004508A5004408A4008F
:101F86000A128A155C210A128A1583120313230882
:101F9600BD002208BC002108BB002008BA00FF2FA4
:101FA6004C08BE0001300310BE0DFF3E031DD62FA8
:101FB60003103E0D013E84000A168A1100200A1203
:101FC6008A15BF000A168A1100200A128A15C00057
:101FD6000A168A1100200A128A15C1000A168A11E9
:101FE60000200A128A15C2004208BD004108BC0042
:101FF6004008BB003F08BA00080010308A000408F9
:10200600840A820700340034003480343F340034BC
:1020160000342034413400340034C83442340034AF
:1020260000347A344434003440341C3446340034AA
:102036005034C3344734003424347434493480343F
:10204600963418344B342034BC34BE344C342834E3
:102056006B346E344E34F934023415345034EC3467
:102066007834AD346034CA34F234493471340034CF
:10207600003480343F34CD34CC34CC343D340A344F
:10208600D73423343C346F34123483343A3417341F
:10209600B734D1343834AC34C53427343734BD344E
:1020A6003734863435349534BF34D63433347734C4
:1020B600CC342B3432345F34703489343034FF34CA
:1020C600E634DB342E340834E5343C341E346034D4
:1020D6004234A2340D3401340034003400340A345E
:1020E6000034003400346434003400340034E834FE
:1020F6000334003400341034273400340034A03460
:10210600863401340034403442340F340034803491
:102116009634983400340034E134F5340534003410
:10212600CA349A343B34543465346D34703465346F
:1021360072346134743475347234653420346934DD
:10214600733420342D343E34203425342E34333445
:1021560066342034633420340D3420340A34003499
:10216E00FB01F71FBB28BC28C328F609F709F60A9E
:10217E000319F70AFB01FB0AF91FC628C728D02846
:10218E00F809F909F80A0319F90A0130FF007F0866
:10219E00FB06FC01FD01760877040319D728D82821
:1021AE000F29FA01FA0AE62801300310F60DF70D91
:1021BE00FF3E031DDC280130FF007F08FA07F71FE2
:1021CE00E928EA28DB2801300310FC0DFD0DFF3E47
:1021DE00031DEB2877087902031DF728760878028D
:1021EE00031CFA28FB2802297608F8027708031C3C
:1021FE00F903F9027C1401300310F70CF60CFF3EC4
:10220E00031D03290130FA02031D0E290F29EA28A6
:10221E007B080319132914291929FC09FD09FC0A45
:10222E000319FD0A7D08F7007C08F60008000A165F
:10223E008A15EE240A168A110A168A15CE240A1653
:10224E008A1100300A168A1579250A168A11710824
:10225E0083160313C9007008C8003B3083120313A2
:10226E00A3009F30A200FF30A100E530A00083162E
:10227E0003134808F0004908F100F201F3010030A1
:10228E000A128A112F200A168A1173088312031359
:10229E00A7007208A6007108A5007008A4000A1213
:1022AE008A155C210A168A118312031323088316DA
:1022BE000313C30083120313220883160313C200F1
:1022CE0083120313210883160313C1008312031311
:1022DE00200883160313C0003C30F3002330F200B5
:1022EE00D730F1000A30F0004308F7004208F6003C
:1022FE004108F5004008F4000A168A11C8210A1692
:10230E008A11730883160313C7007208C60071087A
:10231E00C5007008C400913083120313EA008316BF
:10232E000313470883120313EE00831603134608A4
:10233E0083120313ED008316031345088312031350
:10234E00EC0083160313440883120313EB00903042
:10235E000A128A119F210A168A1190300A168A15BE
:10236E000F250A168A110D3083160313BF00FB309A
:10237E00BE00BE0BC029BF0BC02928290A128A1124
:10238E0000287708803983120313A4007708F80019
:10239E007807AB00F61FD429D529D6292B142B0884
:1023AE000319DA29DB29EB292B0A031DDF29E02982
:1023BE00E8290030F7000030F6000030F50000305C
:1023CE00F400F617F701F3290030F7000030F6009D
:1023DE000030F5000030F40073088039FF007F08EC
:1023EE00A4067308F8007807AC00F21FFF29002A34
:1023FE00012A2C142C080319052A062A162A2C0A3F
:10240E00031D0A2A0B2A132A0030F3000030F200B3
:10241E000030F1000030F000F217F3011E2A0030F8
:10242E00F3000030F2000030F1000030F0007308CD
:10243E00720471047004031D252A262A3F2A0030D7
:10244E00F7000030F6000030F5000030F400803068
:10245E00F6047F30F7042408FF007F08F70477089E
:10246E00F3007608F2007508F1007408F0009C2B5A
:10247E002B08031D432A442A4D2A0030F300003056
:10248E00F2000030F1000030F0009C2B2B08F80019
:10249E00F9017908FB002C087802FA00031CFB03F3
:1024AE007A087F3EA5007B080318013E003EA60079
:1024BE007708A3007608A2007508A1007408A00092
:1024CE000030F7000030F6000030F5000030F40068
:1024DE000030AA000030A9000030A8000030A7008C
:1024EE00AC01C92A2C0803197D2A7E2A9E2A0130A6
:1024FE00F8000310A00DA10DA20DA30DF80B802A5C
:10250E000130F8000310F40DF50DF60DF70DF80B74
:10251E00892AAA1F932A942A952A74140130F80046
:10252E000310A70DA80DA90DAA0DF80B972A730875
:10253E002302031DAC2A72082202031DAC2A710865
:10254E002102031DAC2A70082002031CAF2AB02AF8
:10255E00C52A2A177008A0027108031C710FB82A29
:10256E00B92AA1027208031C720FBE2ABF2AA20248
:10257E007308031C730FC42AC52AA3020130FF007F
:10258E007F08AC071A302C02031CCE2ACF2A792AD8
:10259E0023082204210420040319D62AD72AF62A56
:1025AE002714F62A0130F8000310F40DF50DF60D80
:1025BE00F70DF80BDB2AAA1FE52AE62AE72A741480
:1025CE000130F8000310A70DA80DA90DAA0DF80BE8
:1025DE00E92AFF30A5070318A60AFF30A607F61F43
:1025EE00F92AFA2AD92AAC01AA1FFE2AFF2A1B2B86
:1025FE00FF302705F800FF302805F900FF302905C8
:10260E00FA007F302A05FB007B087A0479047804EF
:10261E000319122B132B162BAC01AC0A1B2B741C9B
:10262E00192B1A2B1B2B132B2C0803191F2B202BAA
:10263E00512B0130F407003003180130F50700303C
:10264E0003180130F607003003180130F707771C26
:10265E00312B322B512B7408F8007508F9007608CF
:10266E00FA007708FB000130FC007B0DFB0CFA0C26
:10267E00F90CF80CFC0B3C2B7B08F7007A08F600E3
:10268E007908F5007808F4000130A5070318A60AAA
:10269E000030A6072608803AFF0080307F02031D17
:1026AE005A2BFF302502031C5D2B5E2B6C2BFF304B
:1026BE0083120313A5000030A6000030F70000308F
:1026CE00F6000030F5000030F400831203132608E4
:1026DE00803AFF0080307F02031D772B01302502E8
:1026EE0003187A2B7B2B882B83120313A501A601CB
:1026FE000030F7000030F6000030F5000030F40036
:10270E00A401831203132508AB002B1C8F2B902BD7
:10271E00922BF617962B7F30FF007F08F6052B08BD
:10272E00F8000310780CF700322A08008312031306
:10273E00CD006E304D02031CA52BA62BB32C3F30C3
:10274E00A3000030A2000030A1000030A0006430D1
:10275E00F5000030F6004D08BE00BF013E08F70040
:10276E003F08F8000A168A15E3250A168A1175081D
:10277E0083120313C00001300310C00DFF3E031D72
:10278E00C32B0310400D7D3E84000A168A110020D3
:10279E000A168A11C1000A168A1100200A168A1119
:1027AE00C2000A168A1100200A168A11C3000A16E0
:1027BE008A1100200A168A11C4004408A700430893
:1027CE00A6004208A5004108A4000A128A155C2141
:1027DE000A168A11831203132308CC002208CB0099
:1027EE002108CA002008C9000A30F5000030F600A2
:1027FE004D08BE00BF013E08F2003F08F3006430F2
:10280E00F0000030F1000A168A15A9250A168A1161
:10281E007108F8007008F7000A168A15E3250A16E3
:10282E008A11750883120313C00001300310C00D06
:10283E00FF3E031D1D2C0310400D593E84000A1649
:10284E008A1100200A168A11C1000A168A11002068
:10285E000A168A11C2000A168A1100200A168A1157
:10286E00C3000A168A1100200A168A11C4004408F1
:10287E00A3004308A2004208A1004108A0004C0892
:10288E00A7004B08A6004A08A5004908A4000A1292
:10289E008A155C210A168A11831203132308C800B5
:1028AE002208C7002108C6002008C5000A30F00023
:1028BE000030F1004D08BE00BF013E08F2003F0897
:1028CE00F3000A168A15A9250A168A1170088312B2
:1028DE000313C00001300310C00DFF3E031D722C08
:1028EE000310400D353E84000A168A1100200A1688
:1028FE008A11C1000A168A1100200A168A11C20016
:10290E000A168A1100200A168A11C3000A168A11A5
:10291E0000200A168A11C4004408A3004308A2002E
:10292E004208A1004108A0004808A7004708A600D9
:10293E004608A5004508A4000A128A155C210A164D
:10294E008A11831203132308BD002208BC0021083C
:10295E00BB002008BA00A72D0B304D02031CB82C6B
:10296E00B92C642D3F30A3000030A2000030A1002E
:10297E000030A0000A30F5000030F6004D08BE0011
:10298E00BF013E08F7003F08F8000A168A15E32536
:10299E000A168A11750883120313C0000130031042
:1029AE00C00DFF3E031DD62C0310400D593E840072
:1029BE000A168A1100200A168A11C1000A168A11F7
:1029CE0000200A168A11C2000A168A1100200A1661
:1029DE008A11C3000A168A1100200A168A11C40031
:1029EE004408A7004308A6004208A5004108A40019
:1029FE000A128A155C210A168A1183120313230800
:102A0E00CC002208CB002108CA002008C9000A30D9
:102A1E00F0000030F1004D08BE00BF013E08F2008C
:102A2E003F08F3000A168A15A9250A168A1170089E
:102A3E0083120313C00001300310C00DFF3E031DAF
:102A4E00232D0310400D353E84000A168A110020F6
:102A5E000A168A11C1000A168A1100200A168A1156
:102A6E00C2000A168A1100200A168A11C3000A161D
:102A7E008A1100200A168A11C4004408A3004308D4
:102A8E00A2004208A1004108A0004C08A7004B0874
:102A9E00A6004A08A5004908A4000A128A155C215E
:102AAE000A168A11831203132308BD002208BC00E4
:102ABE002108BB002008BA00A72D3F30A30000302C
:102ACE00A2000030A1000030A0004D08BE00013071
:102ADE000310BE0DFF3E031D6F2D03103E0D353E40
:102AEE0084000A168A1100200A168A11BF000A16DF
:102AFE008A1100200A168A11C0000A168A110020B7
:102B0E000A168A11C1000A168A1100200A168A11A5
:102B1E00C2004208A7004108A6004008A5003F08D1
:102B2E00A4000A128A155C210A168A118312031355
:102B3E002308BD002208BC002108BB002008BA00F3
:102B4E0008008312031351088039DE005108D600A5
:102B5E005607E000D01FB42DB52DB62D60146008B9
:102B6E000319BA2DBB2DCB2D600A031DBF2DC02D11
:102B7E00C82D0030D1000030D0000030CF00003022
:102B8E00CE00D017D101D32D0030D1000030D000AF
:102B9E000030CF000030CE0055088039DF005F08CE
:102BAE005E060319DB2DDC2DDD2D5E175508D600D4
:102BBE005607DF00D41FE42DE52DE62D5F145F08C8
:102BCE000319EA2DEB2DFB2D5F0A031DEF2DF02DC2
:102BDE00F82D0030D5000030D4000030D300003086
:102BEE00D200D417D501032E0030D5000030D4000A
:102BFE000030D3000030D20060085F020318082EA8
:102C0E00092E2F2E5E1F0C2E0D2E112E8030FF0042
:102C1E007F08DE066008E1005F08E0006108DF0063
:102C2E004E08E1005208CE006108D2004F08E100C4
:102C3E005308CF006108D3005008E1005408D000BB
:102C4E006108D4005108E1005508D1006108D50093
:102C5E00E1015F08D600D7015708D9006008560277
:102C6E00D800031CD9035908803AFF0080307F0238
:102C7E00031D432E1A305802031C462E472E7E2E5D
:102C8E0083120313510850044F044E04031D502E9B
:102C9E00522E0130532E0030E1000030D1000030B2
:102CAE00D0000030CF000030CE005F08E000862E4E
:102CBE00611C622E632E6A2E6108D6000310560C1C
:102CCE000138E1006C2E0310E10C4E1C6F2E702E9D
:102CDE00712EE1170130D600510DD10CD00CCF0C56
:102CEE00CE0CD60B732E0130FF007F08E007831247
:102CFE0003135F086002031C852E862E5F2E5E1B5B
:102D0E00892E8A2ED32E6008031D8E2E8F2E982E7E
:102D1E000030D1000030D0000030CF000030CE00A7
:102D2E00FF2F5208CE07530803110318013E031953
:102D3E00A12ECF07540803110318013E0319A82E24
:102D4E00D007550803110318013E0319AF2ED10702
:102D5E00511CB22EB32E872F611CB62EB72EBE2E4F
:102D6E006108D6000310560C0138E100C02E031086
:102D7E00E10C4E1CC32EC42EC52EE1170130D60019
:102D8E00510DD10CD00CCF0CCE0CD60BC72E013062
:102D9E00FF007F08E007872F5108803AFF00550893
:102DAE00803A7F02031DE52E54085002031DE52EC6
:102DBE0053084F02031DE52E52084E020318E82E4B
:102DCE00E92E412FFF30D600FF30D700FF30D8005C
:102DDE00FF30D9005208DA005308DB005408DC003B
:102DEE005508DD004E08DA024F08031C4F0F002F66
:102DFE00012FDB025008031C500F062F072FDC0299
:102E0E005108031C510F0C2F0D2FDD025A08D60747
:102E1E005B0803185B0F142F152FD7075C080318D8
:102E2E005C0F1A2F1B2FD8075D0803185D0AD907F0
:102E3E005908D1005808D0005708CF005608CE00C8
:102E4E008030FF007F08DE06E109E10A6108031DFC
:102E5E00312F322F4F2F0130CE07003003180130A3
:102E6E00CF07003003180130D007003003180130AF
:102E7E00D1074F2F5208CE025308031C530FCF0217
:102E8E005408031C540FD0025508031C550FD102D1
:102E9E00510850044F044E04031D562F572F832FF5
:102EAE006108031D5B2F5C2F832F0030D100003093
:102EBE00D0000030CF000030CE00FF2F0130D60002
:102ECE000310CE0DCF0DD00DD10DD60B672FE11FF8
:102EDE00712F722F732F4E14611C762F772F7A2F2E
:102EEE000314E10D7C2F0310E10D60080319802FF0
:102EFE00812F832F0130E002D01F862F872F652F61
:102F0E00DF01E11F8B2F8C2F9A2F61087F39031958
:102F1E00912F922F952FDF01DF0A9A2F4E1C982F9B
:102F2E00992F9A2F922F5F0803199E2F9F2FD32F21
:102F3E000130CE07003003180130CF0700300318E0
:102F4E000130D007003003180130D107511CB02FCB
:102F5E00B12FD32F4E08D6004F08D7005008D800F7
:102F6E005108D9000130DA00590DD90CD80CD70C04
:102F7E00D60CDA0BBB2F5908D1005808D0005708D1
:102F8E00CF005608CE00600A0319CE2FCF2FD32FB5
:102F9E000130FF007F08E007600A0319D72FD82FF2
:102FAE00DD2F6008031DDC2FDD2FEB2F0030D1004D
:102FBE000030D0000030CF000030CE006008031D7E
:102FCE00E92FEA2FEB2FDE01601CEE2FEF2FF12FF2
:102FDE00D017F52F7F30FF007F08D0056008D60090
:102FEE000310560CD100DE1FFD2FFE2FFF2FD11721
:022FFE000800C9
:10398C0064008001840A0406031900340406C72C61
:10399C004130831203139F008030831603139F0062
:1039AC00080073087204710470040319DE2CDF2CF8
:1039BC00E12C8030F3060800F00083160313981CEA
:1039CC00E82CE92CE32C70088312031399000800EF
:1039DC008316031318151930990018128312031348
:1039EC009817831603130717871798160800F1000A
:1039FC00F0013A3071020318042D052D0D2D3030D5
:103A0C007102031C0A2D0B2D0D2DF001F00A700C08
:103A1C000800F400F201F301242D72087407F10080
:103A2C007108840000080A168A15E2240A168A1501
:103A3C000130F2070318F30A0030F3077208740719
:103A4C00F1007108840083170008031D2E2D2F2D03
:103A5C00132D0800803083120313E5066908D1008A
:103A6C006808D0006708CF006608CE006508D5004E
:103A7C006408D4006308D3006208D2000A168A11C5
:103A8C00A8250A168A15831203135108E50050085D
:103A9C00E4004F08E3004E08E2000800F401F501D1
:103AAC00701C592D5A2D602D7208F4070318F50A55
:103ABC007308F50701300310F20DF30DFF3E031DE3
:103ACC00612D01300310F10CF00CFF3E031D682D2D
:103ADC0070087104031D732D742D562D7508F1009B
:103AEC007408F0000800F30008307302031C7F2DEB
:103AFC00802D832DF001F101A82DC530FF007F082A
:103B0C00831203139F057308F20002300310F20DA9
:103B1C00FF3E031D8C2D0310720DFF007F089F04C8
:103B2C000930F200F20B982D9B2D831203131F15F5
:103B3C001F19A12DA22D9E2D1E08F1008316031313
:103B4C001E08F0000800700871040319AE2DAF2D8B
:103B5C00DE2DF401F40ABD2D01300310F00DF10D32
:103B6C00FF3E031DB32D0130FF007F08F407F11F4A
:103B7C00C02DC12DB22D71087302031DC72D700805
:103B8C007202031CCA2DCB2DD12D7008F2027108C4
:103B9C00031CF303F30201300310F10CF00CFF3E95
:103BAC00031DD22D0130F402031DDD2DDE2DC12DA0
:103BBC007308F1007208F0000800F901FA017508A9
:103BCC0076040319EA2DEB2D222EFB01FB0AF92DAD
:103BDC0001300310F50DF60DFF3E031DEF2D0130E6
:103BEC00FF007F08FB07F61FFC2DFD2DEE2D01308D
:103BFC000310F90DFA0DFF3E031DFE2D7608780219
:103C0C00031D0A2E75087702031C0D2E0E2E152E81
:103C1C007508F7027608031CF803F80279140130D2
:103C2C000310F60CF50CFF3E031D162E0130FB02A3
:103C3C00031D212E222EFD2D7A08F6007908F500A1
:103C4C00080000307005F80000307105F900803074
:103C5C007205FA007F307305FB007B087A04790447
:103C6C007804031D3A2E3B2E432E0030F300003017
:103C7C00F2000030F1000030F00000307405F80064
:103C8C0000307505F90080307605FA007F30770535
:103C9C00FB007B087A0479047804031D562E572EFA
:103CAC005F2E0030F7000030F6000030F5000030D9
:103CBC00F40077087306031D6D2E76087206031D3B
:103CCC006D2E75087106031D6D2E74087006031990
:103CDC00702E712E732E0310742E031408007308AB
:103CEC0072047104700403197C2E7D2EC02EF90110
:103CFC00F90A8D2E0130F8000310F00DF10DF20DC4
:103D0C00F30DF80B822E0130FF007F08F907F31F2B
:103D1C00902E912E802E73087702031D9F2E720811
:103D2C007602031D9F2E71087502031D9F2E7008CD
:103D3C007402031CA22EA32EB12E7008F40271087B
:103D4C00031C710FF5027208031C720FF602730844
:103D5C00031C730FF70201300310F30CF20CF10C7F
:103D6C00F00CFF3E031DB22E0130F902031DBF2ED5
:103D7C00C02E912E7708F3007608F2007508F1003A
:103D8C007408F0000800F501F31FCD2ECE2ED52EB1
:103D9C00F209F309F20A0319F30AF501F50AF11F06
:103DAC00D82ED92EDE2EF009F109F00A0319F10AEA
:103DBC00700871040319E32EE42E132FF401F40A96
:103DCC00F22E01300310F00DF10DFF3E031DE82E15
:103DDC000130FF007F08F407F11FF52EF62EE72EB9
:103DEC0071087302031DFC2E70087202031CFF2E57
:103DFC00002F062F7008F2027108031CF303F30264
:103E0C0001300310F10CF00CFF3E031D072F0130A5
:103E1C00F402031D122F132FF62E75080319172FFA
:103E2C00182F1D2FF209F309F20A0319F30A73086C
:103E3C00F1007208F00008000030FC000030FB00BC
:103E4C000030FA000030F900730872047104700439
:103E5C000319312F322F7F2FFD01FD0A422F013024
:103E6C00F8000310F00DF10DF20DF30DF80B372FD8
:103E7C000130FF007F08FD07F31F452F462F352F1C
:103E8C000130F8000310F90DFA0DFB0DFC0DF80BC9
:103E9C00482F73087702031D5D2F72087602031DED
:103EAC005D2F71087502031D5D2F70087402031CD1
:103EBC00602F612F702F7008F4027108031C710FB2
:103ECC00F5027208031C720FF6027308031C730FC1
:103EDC00F702791401300310F30CF20CF10CF00C16
:103EEC00FF3E031D712F0130FD02031D7E2F7F2F1E
:103EFC00462F7C08F3007B08F2007A08F100790861
:103F0C00F00008000310831203134F0D500DD60060
:103F1C005608031D922F932F9C2F0030D000003099
:103F2C00CF000030CE000030CD00FF2F4D08D10067
:103F3C004E08D2004F08D3005008D4001F30031095
:103F4C00D40CD30CD20CD10CFF3E031DA52F510861
:103F5C00D500CF17FF30CD05FF30CE05FF30CF0594
:103F6C000030D0059630D602D61FBD2FBE2FD82FCD
:103F7C005608803A973E0318C42FC52FC62F932F8F
:103F8C0001300310D00CCF0CCE0CCD0CFF3E031D1A
:103F9C00C72F0130FF007F08D607031DD62FD72F60
:103FAC00C62FEF2F20305602031CDD2FDE2FEA2FF9
:103FBC00932F0130D1000310CD0DCE0DCF0DD00DB0
:103FCC00D10BE12F0130D6025608031DEE2FEF2F37
:103FDC00DF2F55080319F32FF42FFF2FCD09CE092E
:103FEC00CF09D009CD0A0319CE0A0319CF0A031938
:043FFC00D00A0800DF
:02400E00713F00
:00000001FF
