:060000000A128A11FC2F18
:100F20008316031386018312031386011A30F2001D
:100F30005E30F1006E30F000F00B9C2FF10B9C2F17
:100F4000F20B9C2F000033308312031386001A30FB
:100F5000F2005E30F1006E30F000F00BAD2FF10BBF
:100F6000AD2FF20BAD2F0000673083120313860004
:100F70001A30F2005E30F1006E30F000F00BBE2F40
:100F8000F10BBE2FF20BBE2F00009A308312031319
:100F900086001A30F2005E30F1006E30F000F00B87
:100FA000CF2FF10BCF2FF20BCF2F0000CD308312BC
:100FB000031386001A30F2005E30F1006E30F0004C
:100FC000F00BE02FF10BE02FF20BE02F0000FF30D1
:100FD0008312031386001A30F2005E30F1006E3087
:100FE000F000F00BF12FF10BF12FF20BF12F0000BD
:100FF000932F0A128A11002883010A128A11902F56
:02400E00713F00
:00000001FF
