:060000000A128A110C280F
:10000800FE00030EF0000A08F1000A128A112728E0
:100018000A128A110F28F20183010A128A1137285D
:1000280083120313141494101415941194161412B3
:1000380083160313141394138712071687158C1548
:100048000B178B170800831203138C1D2C282D28DF
:1000580030281308F2008C1171088A00700E830092
:10006800FE0E7E0E09000A128A1114200A128A1145
:100078008316031386017208831286003F280A122A
:040088008A110C28A5
:02400E00713F00
:00000001FF
