:060000000A128A110C280F
:10000800FE00030EF0000A08F1000A128A111428F3
:100018000A128A110F28F30183010A128A11522841
:10002800831203138C1D19281A28332883160313E7
:1000380014191F28202830288312031313081416B4
:1000480083160313141C29282A282428831203132F
:100058001308F30073088800831214168C117108B2
:100068008A00700E8300FE0E7E0E0900F2007208F0
:1000780083160313930080309400363083120313E1
:1000880094000130831603139100871507168C1509
:100098000B178B17831203138C1108008316031395
:1000A800880183120313880140300A128A113A200A
:0C00B8000A128A115E280A128A110C2814
:02400E00713F00
:00000001FF
