:020000040000FA
:10000000936A946A829438EC00F0380E28EC00F081
:1000100038EC00F00E0E28EC00F040EC00F0010E81
:1000200028EC00F040EC00F0060E28EC00F040EC6C
:1000300000F0840E28EC00F040EC00F04E0E30ECA6
:1000400000F040EC00F04F0E30EC00F08270FED774
:10005000816E82908292828440EC00F08294120041
:10006000816E82808292828440EC00F08294120041
:10007000FF0E096E0000000000000906FEE11200FC
:10008000FF0E096E0000000000000906FEE11200EC
:0200900000006E
:00000001FF
