:060000000A128A11FC2F18
:100F1000F00083160313981C8E2F8F2F892F7008D3
:100F20008312031399000800831603131815193050
:100F300099001812831203139817831603130717C7
:100F40008717981608000A128A1194270A128A1124
:100F5000F4010730831603138600880183120313FC
:100F60008801061CB42FB52FC62F0130FF007F0863
:100F7000F4070230F3004530F200A930F100F10B24
:100F8000BF2FF20BBF2FF30BBF2FC62F83120313FC
:100F9000861CCB2FCC2FDB2F0130F4020230F30064
:100FA0004530F200A930F100F10BD42FF20BD42F11
:100FB000F30BD42FDB2F83120313061DE02FE12F39
:100FC000F42F74080A128A1188270A128A11023033
:100FD000F3004530F200A930F100F10BED2FF20BD8
:100FE000ED2FF30BED2FF42F7408831203138800F9
:100FF000B12F0A128A11002883010A128A11A32F25
:02400E00713F00
:00000001FF
